{
  "transactions": [
    {
      "hash": "0xe54d2f5475551c9561c7af708c69d25806c9799ba70808c87c1f62a3b5a29e76",
      "transactionType": "CALL",
      "contractName": null,
      "contractAddress": "0xea868eb203ba9d674cc0ab249a377e90b5997e21",
      "function": "startGame(address[1],address[2],address[3],address[4],uint256,uint256)",
      "arguments": [
        "[0x2943E07Ca68FeBC79533d321F5D427136995ECB6]",
        "[0x0D9A5b29Db1A5d109a3f6E3D3D5141691461d44d, 0x7f35303825129989C8B20CF99bafA5E8563e05E6]",
        "[0x8C73622e3789d9d0297a9bEAC841bC9F153B1705, 0x8C50b29a763E2BabBb6b0AE8A1133D59a537e48c, 0xfFD680D72E71Bd125ee68E98e020beB43bc81D64]",
        "[0xFE8E6bd85e0c0869f8bEe9e67398eB4088c92d07, 0x6f46d90553141D464C000D76e41d0d5380Fc0B23, 0x4a3e6E66f8C32bC05A50879f872B1177A1573CDF, 0x4b91475af6eC45997794b513349aADf7772De95a]",
        "1339200",
        "0"
      ],
      "transaction": {
        "from": "0xf0d5d3fcbfc0009121a630ec8ab67e012117f40c",
        "to": "0xea868eb203ba9d674cc0ab249a377e90b5997e21",
        "gas": "0x10e50f",
        "value": "0x0",
        "input": "0x0f6a945b0000000000000000000000002943e07ca68febc79533d321f5d427136995ecb60000000000000000000000000d9a5b29db1a5d109a3f6e3d3d5141691461d44d0000000000000000000000007f35303825129989c8b20cf99bafa5e8563e05e60000000000000000000000008c73622e3789d9d0297a9beac841bc9f153b17050000000000000000000000008c50b29a763e2babbb6b0ae8a1133d59a537e48c000000000000000000000000ffd680d72e71bd125ee68e98e020beb43bc81d64000000000000000000000000fe8e6bd85e0c0869f8bee9e67398eb4088c92d070000000000000000000000006f46d90553141d464c000d76e41d0d5380fc0b230000000000000000000000004a3e6e66f8c32bc05a50879f872b1177a1573cdf0000000000000000000000004b91475af6ec45997794b513349aadf7772de95a0000000000000000000000000000000000000000000000000000000000146f400000000000000000000000000000000000000000000000000000000000000000",
        "nonce": "0x36",
        "chainId": "0x2105",
        "accessList": null,
        "type": null
      },
      "additionalContracts": [],
      "isFixedGasLimit": false
    }
  ],
  "receipts": [
    {
      "status": "0x1",
      "cumulativeGasUsed": "0x6843a9",
      "logs": [],
      "logsBloom": "0x00000000000000000000000000000000000000000000000000000000000000000000000000000000000000000000000000000000000000000000000000000000000000000000000000000000000000000000000000000000000000000000000000000000000000000000000000000000000000000000000000000000000000000000000000000000000000000000000000000000000000000000000000000000000000000000000000000000000000000000000000000000000000000000000000000000000000000000000000000000000000000000000000000000000000000000000000000000000000000000000000000000000000000000000000000000",
      "type": "0x2",
      "transactionHash": "0xe54d2f5475551c9561c7af708c69d25806c9799ba70808c87c1f62a3b5a29e76",
      "transactionIndex": "0x1a",
      "blockHash": "0xb480925a6ac49e66d1882da1d4fe87fc1def040d08ac9bdb58a5b17f3108c1df",
      "blockNumber": "0xd40258",
      "gasUsed": "0xc3b44",
      "effectiveGasPrice": "0x4973e81",
      "from": "0xf0d5d3fcbfc0009121a630ec8ab67e012117f40c",
      "to": "0xea868eb203ba9d674cc0ab249a377e90b5997e21",
      "contractAddress": null,
      "l1Fee": "0xf6839bf74",
      "l1GasPrice": "0x26496037b",
      "l1GasUsed": "0x16d8"
    }
  ],
  "libraries": [],
  "pending": [],
  "returns": {},
  "timestamp": 1714577817,
  "chain": 8453,
  "commit": "bdeffb3"
}