{
  "transactions": [
    {
      "hash": "0x198f76aa1c7941faa498cbf5c5a47d382e208b99f164a3790da85145e76b4981",
      "transactionType": "CALL",
      "contractName": null,
      "contractAddress": "0xbc7648402240ea665703b53134b8865ecf7fca87",
      "function": "setStormFrequency(uint256)",
      "arguments": [
        "1"
      ],
      "transaction": {
        "from": "0x7cd363c96a97c498e8433a8c2a1f9e4aaa137124",
        "to": "0xbc7648402240ea665703b53134b8865ecf7fca87",
        "gas": "0x9abd",
        "value": "0x0",
        "input": "0xa5bed51b0000000000000000000000000000000000000000000000000000000000000001",
        "nonce": "0x5",
        "chainId": "0x14a34",
        "accessList": null,
        "type": null
      },
      "additionalContracts": [],
      "isFixedGasLimit": false
    }
  ],
  "receipts": [
    {
      "status": "0x1",
      "cumulativeGasUsed": "0x5eea8",
      "logs": [],
      "logsBloom": "0x00000000000000000000000000000000000000000000000000000000000000000000000000000000000000000000000000000000000000000000000000000000000000000000000000000000000000000000000000000000000000000000000000000000000000000000000000000000000000000000000000000000000000000000000000000000000000000000000000000000000000000000000000000000000000000000000000000000000000000000000000000000000000000000000000000000000000000000000000000000000000000000000000000000000000000000000000000000000000000000000000000000000000000000000000000000",
      "type": "0x2",
      "transactionHash": "0x198f76aa1c7941faa498cbf5c5a47d382e208b99f164a3790da85145e76b4981",
      "transactionIndex": "0x4",
      "blockHash": "0x3323bec365b6d5abe7703930e5cd274fa08ba517c40445bb5a323f619b799ed7",
      "blockNumber": "0x932b8e",
      "gasUsed": "0x7008",
      "effectiveGasPrice": "0x187f2",
      "from": "0x7cd363c96a97c498e8433a8c2a1f9e4aaa137124",
      "to": "0xbc7648402240ea665703b53134b8865ecf7fca87",
      "contractAddress": null,
      "l1Fee": "0x1ac7534589f1",
      "l1GasPrice": "0x5be08433",
      "l1GasUsed": "0x7ac"
    }
  ],
  "libraries": [],
  "pending": [],
  "returns": {},
  "timestamp": 1715058179,
  "chain": 84532,
  "commit": "8e2ee31"
}