{
  "transactions": [
    {
      "hash": "0xd7ef0161751a75f38de7b4b5a519eb46be26da134cc86675acce4f9784557d68",
      "transactionType": "CALL",
      "contractName": null,
      "contractAddress": "0x40ec213312b4bfe20baa68f7a3899115350a6607",
      "function": "setPointAllocationTemplates(uint256[7][5])",
      "arguments": [
        "[[3100, 1400, 600, 350, 300, 300, 300], [4900, 1300, 500, 250, 0, 0, 0], [3100, 1200, 900, 350, 400, 0, 0], [2400, 1200, 800, 550, 600, 0, 0], [0, 1200, 1600, 550, 600, 0, 0]]"
      ],
      "transaction": {
        "from": "0xf0d5d3fcbfc0009121a630ec8ab67e012117f40c",
        "to": "0x40ec213312b4bfe20baa68f7a3899115350a6607",
        "gas": "0xa8ded",
        "value": "0x0",
        "input": "0x823eed450000000000000000000000000000000000000000000000000000000000000c1c00000000000000000000000000000000000000000000000000000000000005780000000000000000000000000000000000000000000000000000000000000258000000000000000000000000000000000000000000000000000000000000015e000000000000000000000000000000000000000000000000000000000000012c000000000000000000000000000000000000000000000000000000000000012c000000000000000000000000000000000000000000000000000000000000012c0000000000000000000000000000000000000000000000000000000000001324000000000000000000000000000000000000000000000000000000000000051400000000000000000000000000000000000000000000000000000000000001f400000000000000000000000000000000000000000000000000000000000000fa0000000000000000000000000000000000000000000000000000000000000000000000000000000000000000000000000000000000000000000000000000000000000000000000000000000000000000000000000000000000000000000000000000000000000000000000000000000000000000000000000000000000000c1c00000000000000000000000000000000000000000000000000000000000004b00000000000000000000000000000000000000000000000000000000000000384000000000000000000000000000000000000000000000000000000000000015e000000000000000000000000000000000000000000000000000000000000019000000000000000000000000000000000000000000000000000000000000000000000000000000000000000000000000000000000000000000000000000000000000000000000000000000000000000000000000000000000000000000000096000000000000000000000000000000000000000000000000000000000000004b000000000000000000000000000000000000000000000000000000000000003200000000000000000000000000000000000000000000000000000000000000226000000000000000000000000000000000000000000000000000000000000025800000000000000000000000000000000000000000000000000000000000000000000000000000000000000000000000000000000000000000000000000000000000000000000000000000000000000000000000000000000000000000000000000000000000000000000000000000000000000000000000000000000000004b000000000000000000000000000000000000000000000000000000000000006400000000000000000000000000000000000000000000000000000000000000226000000000000000000000000000000000000000000000000000000000000025800000000000000000000000000000000000000000000000000000000000000000000000000000000000000000000000000000000000000000000000000000000",
        "nonce": "0x3f",
        "chainId": "0x2105",
        "accessList": null,
        "type": null
      },
      "additionalContracts": [],
      "isFixedGasLimit": false
    }
  ],
  "receipts": [
    {
      "status": "0x1",
      "cumulativeGasUsed": "0xb81290",
      "logs": [],
      "logsBloom": "0x00000000000000000000000000000000000000000000000000000000000000000000000000000000000000000000000000000000000000000000000000000000000000000000000000000000000000000000000000000000000000000000000000000000000000000000000000000000000000000000000000000000000000000000000000000000000000000000000000000000000000000000000000000000000000000000000000000000000000000000000000000000000000000000000000000000000000000000000000000000000000000000000000000000000000000000000000000000000000000000000000000000000000000000000000000000",
      "type": "0x2",
      "transactionHash": "0xd7ef0161751a75f38de7b4b5a519eb46be26da134cc86675acce4f9784557d68",
      "transactionIndex": "0x39",
      "blockHash": "0xce7678584030a60eec52940da8f9dc8531f121e0b7950feee377708cb03ed1d4",
      "blockNumber": "0xd96b42",
      "gasUsed": "0x7a426",
      "effectiveGasPrice": "0xd5e70ca",
      "from": "0xf0d5d3fcbfc0009121a630ec8ab67e012117f40c",
      "to": "0x40ec213312b4bfe20baa68f7a3899115350a6607",
      "contractAddress": null,
      "l1Fee": "0x880a7a1d6",
      "l1GasPrice": "0x11c365092",
      "l1GasUsed": "0x1b2c"
    }
  ],
  "libraries": [],
  "pending": [],
  "returns": {},
  "timestamp": 1715286893,
  "chain": 8453,
  "commit": "1de6a14"
}