{
  "transactions": [
    {
      "hash": "0x8dd3c95943cb21695d667ed72b0bf5c2df9834f1189d5d51115cfb13d9ed95c2",
      "transactionType": "CALL",
      "contractName": null,
      "contractAddress": "0xbc7648402240ea665703b53134b8865ecf7fca87",
      "function": "setPointAllocationTemplates(uint256[7][5])",
      "arguments": [
        "[[3100, 1400, 600, 350, 300, 300, 300], [4300, 1100, 500, 250, 0, 1000, 0], [3000, 1100, 800, 350, 400, 600, 0], [2200, 1000, 800, 550, 600, 600, 0], [0, 1100, 1600, 550, 0, 800, 0]]"
      ],
      "transaction": {
        "from": "0x7cd363c96a97c498e8433a8c2a1f9e4aaa137124",
        "to": "0xbc7648402240ea665703b53134b8865ecf7fca87",
        "gas": "0x9a419",
        "value": "0x0",
        "input": "0x823eed450000000000000000000000000000000000000000000000000000000000000c1c00000000000000000000000000000000000000000000000000000000000005780000000000000000000000000000000000000000000000000000000000000258000000000000000000000000000000000000000000000000000000000000015e000000000000000000000000000000000000000000000000000000000000012c000000000000000000000000000000000000000000000000000000000000012c000000000000000000000000000000000000000000000000000000000000012c00000000000000000000000000000000000000000000000000000000000010cc000000000000000000000000000000000000000000000000000000000000044c00000000000000000000000000000000000000000000000000000000000001f400000000000000000000000000000000000000000000000000000000000000fa000000000000000000000000000000000000000000000000000000000000000000000000000000000000000000000000000000000000000000000000000003e800000000000000000000000000000000000000000000000000000000000000000000000000000000000000000000000000000000000000000000000000000bb8000000000000000000000000000000000000000000000000000000000000044c0000000000000000000000000000000000000000000000000000000000000320000000000000000000000000000000000000000000000000000000000000015e000000000000000000000000000000000000000000000000000000000000019000000000000000000000000000000000000000000000000000000000000002580000000000000000000000000000000000000000000000000000000000000000000000000000000000000000000000000000000000000000000000000000089800000000000000000000000000000000000000000000000000000000000003e8000000000000000000000000000000000000000000000000000000000000032000000000000000000000000000000000000000000000000000000000000002260000000000000000000000000000000000000000000000000000000000000258000000000000000000000000000000000000000000000000000000000000025800000000000000000000000000000000000000000000000000000000000000000000000000000000000000000000000000000000000000000000000000000000000000000000000000000000000000000000000000000000000000000000044c00000000000000000000000000000000000000000000000000000000000006400000000000000000000000000000000000000000000000000000000000000226000000000000000000000000000000000000000000000000000000000000000000000000000000000000000000000000000000000000000000000000000003200000000000000000000000000000000000000000000000000000000000000000",
        "nonce": "0x1b",
        "chainId": "0x14a34",
        "accessList": null,
        "type": null
      },
      "additionalContracts": [],
      "isFixedGasLimit": false
    }
  ],
  "receipts": [
    {
      "status": "0x1",
      "cumulativeGasUsed": "0xb3709",
      "logs": [],
      "logsBloom": "0x00000000000000000000000000000000000000000000000000000000000000000000000000000000000000000000000000000000000000000000000000000000000000000000000000000000000000000000000000000000000000000000000000000000000000000000000000000000000000000000000000000000000000000000000000000000000000000000000000000000000000000000000000000000000000000000000000000000000000000000000000000000000000000000000000000000000000000000000000000000000000000000000000000000000000000000000000000000000000000000000000000000000000000000000000000000",
      "type": "0x2",
      "transactionHash": "0x8dd3c95943cb21695d667ed72b0bf5c2df9834f1189d5d51115cfb13d9ed95c2",
      "transactionIndex": "0x5",
      "blockHash": "0xb68b27c0171d2acaa93334721dae8f954a91589b202adc6174edaadd83b63a9d",
      "blockNumber": "0x97d1a7",
      "gasUsed": "0x6fadd",
      "effectiveGasPrice": "0x1889e",
      "from": "0x7cd363c96a97c498e8433a8c2a1f9e4aaa137124",
      "to": "0xbc7648402240ea665703b53134b8865ecf7fca87",
      "contractAddress": null,
      "l1Fee": "0x2edb8f2e2f",
      "l1GasPrice": "0x60e3cbce7",
      "l1GasUsed": "0x1b74"
    }
  ],
  "libraries": [],
  "pending": [],
  "returns": {},
  "timestamp": 1715667507,
  "chain": 84532,
  "commit": "46d826f"
}