{
  "transactions": [
    {
      "hash": "0x81a48a79d3cfee76f09ffb03cf47a1e7f3367708d0ac22f8cc72bbe3f6f0d8c2",
      "transactionType": "CALL",
      "contractName": null,
      "contractAddress": "0xbc7648402240ea665703b53134b8865ecf7fca87",
      "function": "setPointAllocationTemplates(uint256[7][5])",
      "arguments": [
        "[[3100, 1400, 600, 350, 300, 300, 300], [4900, 1300, 500, 250, 0, 0, 0], [3100, 1200, 900, 350, 400, 0, 0], [2400, 1200, 800, 550, 600, 0, 0], [0, 1200, 1600, 550, 600, 0, 0]]"
      ],
      "transaction": {
        "from": "0x7cd363c96a97c498e8433a8c2a1f9e4aaa137124",
        "to": "0xbc7648402240ea665703b53134b8865ecf7fca87",
        "gas": "0x98580",
        "value": "0x0",
        "input": "0x823eed450000000000000000000000000000000000000000000000000000000000000c1c00000000000000000000000000000000000000000000000000000000000005780000000000000000000000000000000000000000000000000000000000000258000000000000000000000000000000000000000000000000000000000000015e000000000000000000000000000000000000000000000000000000000000012c000000000000000000000000000000000000000000000000000000000000012c000000000000000000000000000000000000000000000000000000000000012c0000000000000000000000000000000000000000000000000000000000001324000000000000000000000000000000000000000000000000000000000000051400000000000000000000000000000000000000000000000000000000000001f400000000000000000000000000000000000000000000000000000000000000fa0000000000000000000000000000000000000000000000000000000000000000000000000000000000000000000000000000000000000000000000000000000000000000000000000000000000000000000000000000000000000000000000000000000000000000000000000000000000000000000000000000000000000c1c00000000000000000000000000000000000000000000000000000000000004b00000000000000000000000000000000000000000000000000000000000000384000000000000000000000000000000000000000000000000000000000000015e000000000000000000000000000000000000000000000000000000000000019000000000000000000000000000000000000000000000000000000000000000000000000000000000000000000000000000000000000000000000000000000000000000000000000000000000000000000000000000000000000000000000096000000000000000000000000000000000000000000000000000000000000004b000000000000000000000000000000000000000000000000000000000000003200000000000000000000000000000000000000000000000000000000000000226000000000000000000000000000000000000000000000000000000000000025800000000000000000000000000000000000000000000000000000000000000000000000000000000000000000000000000000000000000000000000000000000000000000000000000000000000000000000000000000000000000000000000000000000000000000000000000000000000000000000000000000000000004b000000000000000000000000000000000000000000000000000000000000006400000000000000000000000000000000000000000000000000000000000000226000000000000000000000000000000000000000000000000000000000000025800000000000000000000000000000000000000000000000000000000000000000000000000000000000000000000000000000000000000000000000000000000",
        "nonce": "0x14",
        "chainId": "0x14a34",
        "accessList": null,
        "type": null
      },
      "additionalContracts": [],
      "isFixedGasLimit": false
    }
  ],
  "receipts": [
    {
      "status": "0x1",
      "cumulativeGasUsed": "0xf6d22",
      "logs": [],
      "logsBloom": "0x00000000000000000000000000000000000000000000000000000000000000000000000000000000000000000000000000000000000000000000000000000000000000000000000000000000000000000000000000000000000000000000000000000000000000000000000000000000000000000000000000000000000000000000000000000000000000000000000000000000000000000000000000000000000000000000000000000000000000000000000000000000000000000000000000000000000000000000000000000000000000000000000000000000000000000000000000000000000000000000000000000000000000000000000000000000",
      "type": "0x2",
      "transactionHash": "0x81a48a79d3cfee76f09ffb03cf47a1e7f3367708d0ac22f8cc72bbe3f6f0d8c2",
      "transactionIndex": "0x7",
      "blockHash": "0x5b9b46db63bfda891d81db57db16c6ab0b2f290dc03a08fb056fed43e482cdb9",
      "blockNumber": "0x94e9f4",
      "gasUsed": "0x6e4b5",
      "effectiveGasPrice": "0x865be",
      "from": "0x7cd363c96a97c498e8433a8c2a1f9e4aaa137124",
      "to": "0xbc7648402240ea665703b53134b8865ecf7fca87",
      "contractAddress": null,
      "l1Fee": "0x26ce0f1e13",
      "l1GasPrice": "0x15674b",
      "l1GasUsed": "0x1b2c"
    }
  ],
  "libraries": [],
  "pending": [],
  "returns": {},
  "timestamp": 1715286734,
  "chain": 84532,
  "commit": "1de6a14"
}