{
  "transactions": [
    {
      "hash": "0x6e63be01fe0687a68aa5f9b87f563460d867ebf95e4bccae5e74a123769f5fd6",
      "transactionType": "CALL",
      "contractName": null,
      "contractAddress": "0xbc7648402240ea665703b53134b8865ecf7fca87",
      "function": "setPointAllocationTemplates(uint256[7][5])",
      "arguments": [
        "[[3100, 1400, 600, 350, 300, 300, 300], [4300, 1100, 500, 250, 0, 1000, 0], [3000, 1100, 800, 250, 400, 1000, 0], [2200, 1000, 800, 550, 600, 600, 0], [0, 1100, 1600, 550, 0, 800, 0]]"
      ],
      "transaction": {
        "from": "0x7cd363c96a97c498e8433a8c2a1f9e4aaa137124",
        "to": "0xbc7648402240ea665703b53134b8865ecf7fca87",
        "gas": "0xb5438",
        "value": "0x0",
        "input": "0x823eed450000000000000000000000000000000000000000000000000000000000000c1c00000000000000000000000000000000000000000000000000000000000005780000000000000000000000000000000000000000000000000000000000000258000000000000000000000000000000000000000000000000000000000000015e000000000000000000000000000000000000000000000000000000000000012c000000000000000000000000000000000000000000000000000000000000012c000000000000000000000000000000000000000000000000000000000000012c00000000000000000000000000000000000000000000000000000000000010cc000000000000000000000000000000000000000000000000000000000000044c00000000000000000000000000000000000000000000000000000000000001f400000000000000000000000000000000000000000000000000000000000000fa000000000000000000000000000000000000000000000000000000000000000000000000000000000000000000000000000000000000000000000000000003e800000000000000000000000000000000000000000000000000000000000000000000000000000000000000000000000000000000000000000000000000000bb8000000000000000000000000000000000000000000000000000000000000044c000000000000000000000000000000000000000000000000000000000000032000000000000000000000000000000000000000000000000000000000000000fa000000000000000000000000000000000000000000000000000000000000019000000000000000000000000000000000000000000000000000000000000003e80000000000000000000000000000000000000000000000000000000000000000000000000000000000000000000000000000000000000000000000000000089800000000000000000000000000000000000000000000000000000000000003e8000000000000000000000000000000000000000000000000000000000000032000000000000000000000000000000000000000000000000000000000000002260000000000000000000000000000000000000000000000000000000000000258000000000000000000000000000000000000000000000000000000000000025800000000000000000000000000000000000000000000000000000000000000000000000000000000000000000000000000000000000000000000000000000000000000000000000000000000000000000000000000000000000000000000044c00000000000000000000000000000000000000000000000000000000000006400000000000000000000000000000000000000000000000000000000000000226000000000000000000000000000000000000000000000000000000000000000000000000000000000000000000000000000000000000000000000000000003200000000000000000000000000000000000000000000000000000000000000000",
        "nonce": "0x1a",
        "chainId": "0x14a34",
        "accessList": null,
        "type": null
      },
      "additionalContracts": [],
      "isFixedGasLimit": false
    }
  ],
  "receipts": [
    {
      "status": "0x1",
      "cumulativeGasUsed": "0x18ef04",
      "logs": [],
      "logsBloom": "0x00000000000000000000000000000000000000000000000000000000000000000000000000000000000000000000000000000000000000000000000000000000000000000000000000000000000000000000000000000000000000000000000000000000000000000000000000000000000000000000000000000000000000000000000000000000000000000000000000000000000000000000000000000000000000000000000000000000000000000000000000000000000000000000000000000000000000000000000000000000000000000000000000000000000000000000000000000000000000000000000000000000000000000000000000000000",
      "type": "0x2",
      "transactionHash": "0x6e63be01fe0687a68aa5f9b87f563460d867ebf95e4bccae5e74a123769f5fd6",
      "transactionIndex": "0x5",
      "blockHash": "0xd6d7b126a96debffcb59f173886e69e7ba233ca922d4ac4ab5630b69ca0d1dcb",
      "blockNumber": "0x97d05a",
      "gasUsed": "0x833b5",
      "effectiveGasPrice": "0x18ac2",
      "from": "0x7cd363c96a97c498e8433a8c2a1f9e4aaa137124",
      "to": "0xbc7648402240ea665703b53134b8865ecf7fca87",
      "contractAddress": null,
      "l1Fee": "0x728f5f8d65",
      "l1GasPrice": "0xed49bf02b",
      "l1GasUsed": "0x1b68"
    }
  ],
  "libraries": [],
  "pending": [],
  "returns": {},
  "timestamp": 1715666842,
  "chain": 84532,
  "commit": "1836347"
}