{
  "transactions": [
    {
      "hash": "0x0077af1a79044de599e8395b3e3edf36db917d511dcd4759520398ee4e185c8b",
      "transactionType": "CALL",
      "contractName": null,
      "contractAddress": "0x12be8ef11d78a09be19fe8680cda0538aef87e9c",
      "function": "transferOwnership(address)",
      "arguments": [
        "0x6Ca74A32F864918a7399d37592438A80Ec7Ec8D9"
      ],
      "transaction": {
        "from": "0xf0d5d3fcbfc0009121a630ec8ab67e012117f40c",
        "to": "0x12be8ef11d78a09be19fe8680cda0538aef87e9c",
        "gas": "0xa2f1",
        "value": "0x0",
        "input": "0xf2fde38b0000000000000000000000006ca74a32f864918a7399d37592438a80ec7ec8d9",
        "nonce": "0x32",
        "chainId": "0x2105",
        "accessList": null,
        "type": null
      },
      "additionalContracts": [],
      "isFixedGasLimit": false
    }
  ],
  "receipts": [
    {
      "status": "0x1",
      "cumulativeGasUsed": "0x88b3df",
      "logs": [
        {
          "address": "0x12be8ef11d78a09be19fe8680cda0538aef87e9c",
          "topics": [
            "0x8be0079c531659141344cd1fd0a4f28419497f9722a3daafe3b4186f6b6457e0",
            "0x000000000000000000000000f0d5d3fcbfc0009121a630ec8ab67e012117f40c",
            "0x0000000000000000000000006ca74a32f864918a7399d37592438a80ec7ec8d9"
          ],
          "data": "0x",
          "blockHash": "0xc00bc68d9843d06222fa3558e361befadf7ca374551b9df2d9d452dc19d5198f",
          "blockNumber": "0xcb22ca",
          "transactionHash": "0x0077af1a79044de599e8395b3e3edf36db917d511dcd4759520398ee4e185c8b",
          "transactionIndex": "0x3a",
          "logIndex": "0x88",
          "removed": false
        }
      ],
      "logsBloom": "0x00000000000000000000000000000000000000000000000000800000020000000000100000040000000000000000000000000000000000000000000000000000000000000000000000000000000000000001000000000000000000000000000000400000000000000000000000000000000000000800000000000000000000400000000000000000000000000000000000000000000000000000000000000000000000000000000000000000000000000000000000000002000010000000000000000000020000000000000000000000100000000000000000000000000000000000000000000000000000000000000000000000000000000000000000000000",
      "type": "0x2",
      "transactionHash": "0x0077af1a79044de599e8395b3e3edf36db917d511dcd4759520398ee4e185c8b",
      "transactionIndex": "0x3a",
      "blockHash": "0xc00bc68d9843d06222fa3558e361befadf7ca374551b9df2d9d452dc19d5198f",
      "blockNumber": "0xcb22ca",
      "gasUsed": "0x6f6a",
      "effectiveGasPrice": "0x140566b",
      "from": "0xf0d5d3fcbfc0009121a630ec8ab67e012117f40c",
      "to": "0x12be8ef11d78a09be19fe8680cda0538aef87e9c",
      "contractAddress": null,
      "l1Fee": "0x556cf7898",
      "l1GasPrice": "0x2365819e1",
      "l1GasUsed": "0x890"
    }
  ],
  "libraries": [],
  "pending": [],
  "returns": {},
  "timestamp": 1713414781,
  "chain": 8453,
  "commit": "22df507"
}