{
  "transactions": [
    {
      "hash": "0x6b4846bdac53960a0bc3f56de35bbec23eb8fa4741dce303f5c7f0794bee2905",
      "transactionType": "CALL",
      "contractName": null,
      "contractAddress": "0x40ec213312b4bfe20baa68f7a3899115350a6607",
      "function": "transferOwnership(address)",
      "arguments": [
        "0x1aF758C720d6fDB9652143320D9e00A0a4A89383"
      ],
      "transaction": {
        "from": "0xf0d5d3fcbfc0009121a630ec8ab67e012117f40c",
        "to": "0x40ec213312b4bfe20baa68f7a3899115350a6607",
        "gas": "0x9a4d",
        "value": "0x0",
        "input": "0xf2fde38b0000000000000000000000001af758c720d6fdb9652143320d9e00a0a4a89383",
        "nonce": "0x3e",
        "chainId": "0x2105",
        "accessList": null,
        "type": null
      },
      "additionalContracts": [],
      "isFixedGasLimit": false
    }
  ],
  "receipts": [
    {
      "status": "0x1",
      "cumulativeGasUsed": "0xbb4010",
      "logs": [
        {
          "address": "0x40ec213312b4bfe20baa68f7a3899115350a6607",
          "topics": [
            "0x8be0079c531659141344cd1fd0a4f28419497f9722a3daafe3b4186f6b6457e0",
            "0x000000000000000000000000f0d5d3fcbfc0009121a630ec8ab67e012117f40c",
            "0x0000000000000000000000001af758c720d6fdb9652143320d9e00a0a4a89383"
          ],
          "data": "0x",
          "blockHash": "0x2d402b94d9fa0438c9d1ae19d8db792d8c9679cafbe95329c3b283b16fbec325",
          "blockNumber": "0xd75bd4",
          "transactionHash": "0x6b4846bdac53960a0bc3f56de35bbec23eb8fa4741dce303f5c7f0794bee2905",
          "transactionIndex": "0x3a",
          "logIndex": "0x103",
          "removed": false
        }
      ],
      "logsBloom": "0x00000000000000000000000000000000000000000000000000800000000000000000000000000080000000000000000000000000000000000000000000000000000000000000000000000000000000000001000000000000000000000000000000404000000000000000000000000000000000000000000000000000000000400000400000000000000040000000000000000000000000000000000000000000000000000000000000000000000000000000000000000000000010000000000000000000020000000000000000000000000000000100000000000000000000000000000000000000000000000000000000000000000000000000000000000000",
      "type": "0x2",
      "transactionHash": "0x6b4846bdac53960a0bc3f56de35bbec23eb8fa4741dce303f5c7f0794bee2905",
      "transactionIndex": "0x3a",
      "blockHash": "0x2d402b94d9fa0438c9d1ae19d8db792d8c9679cafbe95329c3b283b16fbec325",
      "blockNumber": "0xd75bd4",
      "gasUsed": "0x6fb7",
      "effectiveGasPrice": "0x59ad3d0",
      "from": "0xf0d5d3fcbfc0009121a630ec8ab67e012117f40c",
      "to": "0x40ec213312b4bfe20baa68f7a3899115350a6607",
      "contractAddress": null,
      "l1Fee": "0x445666bc4",
      "l1GasPrice": "0x1c78c984f",
      "l1GasUsed": "0x884"
    }
  ],
  "libraries": [],
  "pending": [],
  "returns": {},
  "timestamp": 1715016848,
  "chain": 8453,
  "commit": "8e2ee31"
}