{
  "transactions": [
    {
      "hash": "0x55f9350c7d8990fa752d51194c473ef0002148d47e1a4c4d8ad676c3a701ab5b",
      "transactionType": "CALL",
      "contractName": null,
      "contractAddress": "0x12be8ef11d78a09be19fe8680cda0538aef87e9c",
      "function": "setStormFrequency(uint256)",
      "arguments": [
        "1800"
      ],
      "transaction": {
        "from": "0xf0d5d3fcbfc0009121a630ec8ab67e012117f40c",
        "to": "0x12be8ef11d78a09be19fe8680cda0538aef87e9c",
        "gas": "0x9a91",
        "value": "0x0",
        "input": "0xa5bed51b0000000000000000000000000000000000000000000000000000000000000708",
        "nonce": "0x23",
        "chainId": "0x2105",
        "accessList": null,
        "type": null
      },
      "additionalContracts": [],
      "isFixedGasLimit": false
    }
  ],
  "receipts": [
    {
      "status": "0x1",
      "cumulativeGasUsed": "0x581efd",
      "logs": [],
      "logsBloom": "0x00000000000000000000000000000000000000000000000000000000000000000000000000000000000000000000000000000000000000000000000000000000000000000000000000000000000000000000000000000000000000000000000000000000000000000000000000000000000000000000000000000000000000000000000000000000000000000000000000000000000000000000000000000000000000000000000000000000000000000000000000000000000000000000000000000000000000000000000000000000000000000000000000000000000000000000000000000000000000000000000000000000000000000000000000000000",
      "type": "0x2",
      "transactionHash": "0x55f9350c7d8990fa752d51194c473ef0002148d47e1a4c4d8ad676c3a701ab5b",
      "transactionIndex": "0x27",
      "blockHash": "0xea9978943e2ce18c78e39d6111595b3b4c2fed7f3964ebc7d32c5f9bd8eb6e18",
      "blockNumber": "0xc98677",
      "gasUsed": "0x6fe8",
      "effectiveGasPrice": "0x8be2c64",
      "from": "0xf0d5d3fcbfc0009121a630ec8ab67e012117f40c",
      "to": "0x12be8ef11d78a09be19fe8680cda0538aef87e9c",
      "contractAddress": null,
      "l1Fee": "0xc60455287",
      "l1GasPrice": "0x5b04a61f8",
      "l1GasUsed": "0x7b8"
    }
  ],
  "libraries": [],
  "pending": [],
  "returns": {},
  "timestamp": 1713203671,
  "chain": 8453,
  "commit": "06936f3"
}